:0A0000000C94CE010C9400000C9447
:10000A0000000C9400000C9400000C9400000C9466
:10001A0000000C9400000C9400000C9400000C9456
:10002A0000000C9400000C9400000C9400000C9446
:10003A0000000C9400000C9400000C9400000C9436
:10004A0000000C9400000C940000050720600000DA
:10005A0000000000005F00000007000700147F1482
:10006A007F14242A7F2A12231308646236495522F0
:10007A00500005030000001C2241000041221C0020
:10008A00082A1C2A0808083E080800503000000800
:10009A0008080808003030000020100804023E5109
:1000AA0049453E00427F400042615149462141454F
:1000BA004B311814127F1027454545393C4A4949A6
:1000CA003001710905033649494936064949291E4D
:1000DA00003636000000563600000008142241148B
:1000EA001414141441221408000201510906324959
:1000FA0079413E7E1111117E7F494949363E41417F
:10010A0041227F4141221C7F494949417F09090116
:10011A00013E414151327F0808087F00417F41007A
:10012A002040413F017F081422417F404040407FE8
:10013A000204027F7F0408107F3E4141413E7F094D
:10014A000909063E4151215E7F0919294646494956
:10015A00493101017F01013F4040403F1F204020BB
:10016A001F7F2018207F6314081463030478040394
:10017A00615149454300007F414102040810204172
:10018A00417F000004020102044040404040000157
:10019A0002040020545454787F4844443838444474
:1001AA004420384444487F3854545418087E09017E
:1001BA0002081454543C7F0804047800447D40002B
:1001CA002040443D00007F10284400417F40007CCD
:1001DA00041804787C0804047838444444387C14AD
:1001EA00141408081414187C7C080404084854548D
:1001FA005420043F4440203C4040207C1C204020A6
:10020A001C3C4030403C44281028440C5050503C80
:10021A004464544C44000836410000007F0000004A
:10022A004136080002010204027F4141417F000178
:10023A0003070F1F3F7FFF000000000000000000BF
:10024A0000000000000000000000000000000000A4
:10025A0000010000496E20746865206E616D65209A
:10026A006F6620476F640054656D707265747572AD
:10027A00653F0028636C69636B20273D2720746FF4
:10028A0020636F6E74696E756529002564005420B9
:10029A0069733A25303264200056313F00563120C6
:1002AA0069733A25303264200056323F0028636C65
:1002BA0069636B20273D2720746F20636F6E746912
:1002CA006E75650056322069733A25303264200013
:1002DA0064656C74615F543F0064656C74615F545B
:1002EA002069733A25303264200073746172743F56
:1002FA000054454D5025643D2564204300617667CE
:10030A003D25312E3266007661723D25312E3266E8
:10031A000046616E3A204F4E0046616E3A204F46C3
:10032A00460063686172743F00002D4E414E000022
:10033A0001002D4E414E00494E4600001300600256
:10034A005E020C007302710218007F027D02040033
:10035A009702A30218009B027D020400B302B302B3
:10036A001700B702B7020900CE02DA021800D70254
:10037A007D020700EF02F4020800F6021B030900DF
:10038A00FE022303070007032C0301002E033A038E
:10039A000000F894EE27ECBBF1E0FBBFEBBFE5BF32
:1003AA008DE0A2E0BB27ED938A95E9F780E098E01B
:1003BA00A0E6ED930197E9F7E6E4F3E085919591DC
:1003CA00009761F0A591B59105901590BF01F001D4
:1003DA0005900D920197E1F7FB01F0CFEFE5EDBF34
:1003EA00E8E0EEBFC0E6D2E00C946902AA93E88185
:1003FA00E06CE7B98BE18A95F1F7369A349BFECF28
:10040A00349AE4B1F5B121960895E0E0E1BBEFE05A
:10041A00E2BBE0E1E1BB809903C0E7E0F0E00895C8
:10042A00819903C0E4E0F0E00895829903C0E1E015
:10043A00F0E00895839903C0EAE2F0E00895E0E26B
:10044A00E1BB809903C0E8E0F0E00895819903C018
:10045A00E5E0F0E00895829903C0E2E0F0E0089553
:10046A00839903C0E0E0F0E00895E0E4E1BB8099FD
:10047A0003C0E9E0F0E00895819903C0E6E0F0E006
:10048A000895829903C0E3E0F0E00895839903C0D8
:10049A00EDE3F0E00895E0E8E1BB809903C0E4E60B
:1004AA00F0E00895819903C0E5E6F0E008958299A5
:1004BA0003C0E6E6F0E00895839903C0E7E6F0E0BA
:1004CA000895EFEFF0E00895EF97EF97E0978BE14B
:1004DA00AAE6B0E0E2E4F2E00E942E1640E050E024
:1004EA00E0E0EABBEBBBEFEFE7BBE0E0E8BBEFEF36
:1004FA00E4BBE0E0E5BBE1BBE2BBE0E1E3BFE0E097
:10050A00E2BFECBFEFBDEEBDEDBDECBDE7BDE6BDA4
:10051A00EBBDEABDE9BDE8BDE2BDE5BDE4BDE3BDB5
:10052A00E9BFEBB7E064EBBFE0E0E5BFE4BFE0E4BE
:10053A00EABFE0E0EBB9E0E1EAB9E6E8E0BDE0E015
:10054A00E0BDE3E3E9B9E0E8E8B9E0ECE7B9E2E8FD
:10055A00E6B9E0E0E0BFEDB9E6BFE4E5F0E0E88344
:10056A00F983E0E0EA83EB83EC83ED83DE010E940A
:10057A00CF090E944D10E8E7EA93E5E00E94561081
:10058A00E7E30E945610E5E0EA93E8E7EA93A5E07C
:10059A000E94EE0DE9E0EA93E9E1EA93A0E6B2E00F
:1005AA000E94B20DACE2B1E00E945F100E9463109B
:1005BA00A3E7B2E00E946810AFE7B2E00E94B20D72
:1005CA000E946F1091F50E94771074F50E947E10B8
:1005DA00F9F00E94831011F40E9488100E94901072
:1005EA0019F00E94831009F413C00E94340A0E9471
:1005FA0095100E949C10DE01AF57BF4FED93FC93FC
:10060A000E94A3100E94A9100E94AE100E94BD1061
:10061A000E947E1049F40E94340AE0E0DE01AF57DE
:10062A00BF4FED93EC93CCCFCBCF0E94CC10E8E92F
:10063A00F2E0FA93EA930E94AE100E94CF10A7E963
:10064A00B2E00E946810ABE9B2E00E94B20D0E94CB
:10065A006F1091F50E94771074F50E947E10F9F0E0
:10066A000E94831011F40E9488100E94901019F0C1
:10067A000E94831009F413C00E94340A0E94F110E8
:10068A000E949C10DE01A358BF4FED93FC930E9479
:10069A00A3100E94A9100E94F8100E94BD100E9487
:1006AA007E1049F40E94340AE0E0DE01A358BF4FED
:1006BA00ED93EC93CCCFCBCF0E94CC10E7EAF2E0DB
:1006CA00FA93EA930E94F8100E94CF10A3EBB2E0CB
:1006DA000E946810A7EBB2E00E94B20D0E946F1050
:1006EA0091F50E94771074F50E947E10F9F00E942D
:1006FA00831011F40E9488100E94901019F00E9431
:10070A00831009F413C00E94340A0E9402110E9445
:10071A009C10DE01A558BF4FED93FC930E94A310D5
:10072A000E94A9100E9409110E94BD100E947E1009
:10073A0049F40E94340AE0E0DE01A558BF4FED9368
:10074A00EC93CCCFCBCF0E94CC10EEECF2E0FA9334
:10075A00EA930E9409110E94CF10AEECB2E00E9407
:10076A006810A7EDB2E00E94B20D0E946F10B1F5B9
:10077A000E94771094F50E947E1019F10E9483104E
:10078A0011F40E9488100E94901019F00E948310A0
:10079A0009F417C00E94340AFE01E158FF4F019084
:1007AA00F081E02D0E949C10DE01A158BF4FED930D
:1007BA00FC930E94A3100E94A9100E9418110E9483
:1007CA00BD100E947E1049F40E94340AE0E0DE0166
:1007DA00A158BF4FED93EC9381CFC7CF0E94CC10A5
:1007EA00E3EEF2E0FA93EA930E941811E0E1EA9349
:1007FA00E0E0EA93DE01AF55BF4F0E94B20DA8ECCC
:10080A00B0E00E945F10E9E1EA93EA93AFEEB2E04A
:10081A000E94B20DFADDDE01A758BF4FED93FC939B
:10082A000E942711DD9721F00E9427119A9709F457
:10083A0001C0F0CFBB9AE0E8ECBFE9E6E3BFE0E035
:10084A00DE01A159BF4FED93ED93ED93EC93DE01D9
:10085A00AD58BF4FED93ED93ED93EC930E94340A9C
:10086A0020E030E02430E0E03E077CF50E942E11C3
:10087A00EA0FFB1FFF93EF93A22FB8DD0E942A1500
:10088A00AF91BF91ED93FC930E943511EBEFF2E02B
:10089A00FA93EA93F90131960E9435150E94DF1501
:1008AA00F901DE01A156BF4FEE0FFF1F0E943B1157
:1008BA000E9435150E94DF1588E00E94D4082C9604
:1008CA000E9440112F5F3F4FCDCF20E030E024300F
:1008DA00E0E03E077CF40E942E110E943B110E9428
:1008EA004A110E9453110E9407140E9458112F5F47
:1008FA003F4FEDCF0E944A110E9460110E94581189
:10090A000E943511E7E0F3E0FA93EA930E94671137
:10091A000E9470110E94401120E030E02430E0E093
:10092A003E0704F50E942E110E943B11DF01FE01D1
:10093A00E159FF4F0190119061917081F0010E947D
:10094A003A150E94EB150E947711DF01CB010E9434
:10095A0057140E947C110E9407140E9485112F5F70
:10096A003F4FDCCF0E947C110E9460110E948511CA
:10097A000E943511E1E1F3E0FA93EA93FE01E958A6
:10098A00FF4F0190119061917081F0010E947011E6
:10099A00E0E1EA93E2E3EA93DE01A757BF4F0E9440
:1009AA00B20DFA01E050F0400E948D110E94071624
:1009BA004F5F5F4FA4E6B0E00E9457130E94671191
:1009CA00DE01A559BF4FED93FD936D937C930E9471
:1009DA0002110E94B21109F008F413C0C79AFE016D
:1009EA00E659FF4FE081E03059F40E94BE11A6EFAC
:1009FA00B2E00E94B20DE1E0DE01A659BF4FEC93CE
:100A0A0017C00E94F1100E94B21190F4C798DE013B
:100A1A00A659BF4FAC91A13059F40E94BE11AEEF56
:100A2A00B2E00E94B20DE0E0DE01A659BF4FEC939E
:100A3A00A4E6B0E00E945F10EFE0EA93E9E1EA93EE
:100A4A00A7E0B3E00E94B20DE0DC8F01A4E1B0E0C0
:100A5A000E945713FA01DE011696EA0FFB1F0E9445
:100A6A008D11EC930E94C511EA17FB070CF4C39889
:100A7A000E94C511AE17BF070CF4C39ADE01169681
:100A8A00A40FB51FAC91FE01EF57FF4FE081EA1B9F
:100A9A00AAE0EA02F001ECBFECB7AE2FEFEFEA17DB
:100AAA0008F4ECBFEAE2F0E0E017F10709F04FC002
:100ABA000E944D10E5E0EA93E7E3EA93EBE9EA9353
:100ACA00A7E30E94EE0DE6E0EA93FE01EE57FF4F20
:100ADA00E081EA93EBE9EA93DE01AC57BF4FAC91B0
:100AEA000E94EE0DE0E0DE01AB57BF4FED93EC93B1
:100AFA00DE01AB57BF4F0D90BC91A02DA417B507CF
:100B0A0014F5FE01EB57FF4FE081DE01A158BF4FFC
:100B1A00AC91EA02F001EA5FEA93FE01EA57FF4F5D
:100B2A000190F081E02DDE011796AE0FBF1FAC9148
:100B3A00E7E3EA1BAE2F0E94C30CDE01AB57BF4F9F
:100B4A000E94CD11D5CFA8EEB3E00E94571377CEFD
:100B5A00FFCFBA93AA931A930A93AA81BB811296DA
:100B6A000E94C615309729F1AA81BB8114960E946A
:100B7A00C6158F01309761F00230E0E01E0780F061
:100B8A00F80131978F01AA81BB811496ED93FC93EA
:100B9A00AA81BB8112960E94CD113197AC81A083A4
:100BAA00AA81BB810E94C615FF2312F00E94CD11B3
:100BBA0006C0AA81BB81EFEFFFEFED93FC93198189
:100BCA000881259608950E94D311E0E8EA83EFE3AD
:100BDA00EB830E942216EE85FF85EF3FAFEFFA07FF
:100BEA0049F4E885F985FA93EA93A4E3B3E00E940D
:100BFA00F40EB7C0EF3FAFE7FA0749F4E885F98585
:100C0A00FA93EA93A5E3B3E00E94F40EAAC0AB8577
:100C1A00A73010F0E6E0EB871B85E12F1150E0309A
:100C2A0019F00E94DA11F9CFEC85FD856E857F8572
:100C3A000E94181621F430E00E94DA112DC03B857B
:100C4A000E94E91109F008F40BC00E94DA110E940F
:100C5A00E91128F00E94F4110E94F911F8CF0DC091
:100C6A000E94E91140F40E94F4110E9405120E94A8
:100C7A000C123150F5CF0E94DA11EC85FD856E8594
:100C8A007F850E9411120E940C120E94E91120F025
:100C9A000E94F4110E94F91110E0EB85E117A8F106
:100CAA00AC81BD818E819F810E9418120E9411120F
:100CBA00DF01CB010E943909EC83FD836E837F83B8
:100CCA000E94F4110E94A5140E9494130E2F0E94F0
:100CDA001F120E942612FF27662777270E94CD132C
:100CEA00AC81BD818E819F810E9457140E94F411AC
:100CFA000E9477110E940C12E12F1F5FE03069F603
:100D0A000E941F12EEE2EC93C8CF0E942B12319779
:100D1A00AA85A08330302CF43195A885B985EDE2F7
:100D2A0003C0A885B985EBE2EC930E942B120E94BE
:100D3A002B123197BF01A32FEAE00E945A15E05DFA
:100D4A00DB01EC930E942B123197BF01A32FEAE03B
:100D5A000E949C15E05DDB01EC93A885B985E0E073
:100D6A00EC930E94291660960895BA93AA93EF9776
:100D7A0061970E94201610E0FE01E85AFF4F019089
:100D8A00F081E02DE887F987FE01EA5AFF4F0190CA
:100D9A00F081E02DEE83FF83AE81BF81E0E0F0E0D9
:100DAA00ED93FC93DE01A45ABF4F0E94CD113197F7
:100DBA00E4912E2FE03009F4E9C1E12FE03039F453
:100DCA00253211F411E002C00E943112DEC1E13075
:100DDA00C1F4253219F40E943112D6C112E0E0E0C2
:100DEA00ED8B00E02D3211F401E0CFC12B3219F462
:100DFA00EBE2ED8BCAC1203219F4E0E2ED8BC5C1FA
:100E0A0002C0E23039F450E013E0203311F40068F4
:100E1A00BCC102C0E33091F4203310F02A3308F049
:100E2A0007C0AAE05A9F502DE22FE0535E0FADC1D2
:100E3A0040E02E3211F414E0A8C10FC0E43099F456
:100E4A00203310F02A3308F008C00062AAE04A9F53
:100E5A00402DE22FE0534E0F98C12C3619F4026050
:100E6A0015E093C103C0E53009F08FC1E22FE336E4
:100E7A0059F40E9438120E943F120E943812A4812B
:100E8A00AA930E94461280C1E53411F0E53609F4AE
:100E9A0003C0E63609F048C0FE017696EE87FF8762
:100EAA000E944C120E94CA150E9453120E945812A4
:100EBA00AD85AA2332F0AD89AB3259F0A03281F068
:100ECA0017C00E945A120E9461130E945312EDE247
:100EDA00ED8B07FF05C0ED89EA930E94461208C010
:100EEA00EE85FF853196EE87FF873197AD89A0831E
:100EFA0005FF46E0263651F40E945A120E94DF1579
:100F0A004A93AB89BC890E941A0F09C00E945A12DF
:100F1A000E94DF154A932A93AC89BD8954DEFE01EB
:100F2A0076960E945F121EC0E33739F40E94581267
:100F3A000E9467120E945F120EC0E037C1F40E943D
:100F4A0058120E946712EE87FF87AE85BF850E94FE
:100F5A000D0F1E2F08600F77403011F0411708F06F
:100F6A0001C0142F40E0E0E0EC8B30E06DC0E436C5
:100F7A0011F0E93611F4046002C0E537A1F4EAE0A1
:100F8A00EC8B01FF08C0E0E0FAEC6AE97BE30E941F
:100F9A006C121AE022C0E0E1F7E260E070E00E9421
:100FAA006C1215E01AC0E83511F4086003C0E8377E
:100FBA0009F0EAC0E0E1EC8B01FF08C0E0E0F0E0F4
:100FCA0060E070E10E946C1218E007C0E0E0F0E116
:100FDA0060E070E00E946C1214E0403011F00F776C
:100FEA0001C041E001FF08C00E9458120E944C1241
:100FFA0014960E94CA150FC002FF07C00E94581219
:10100A000E9467120E94351506C00E9458120E945B
:10101A00671266277727EA87FB876C877D8702FF37
:10102A0012C0AD85AA2342F40E945A120E941215D8
:10103A000E945312EDE2ED8BED89E03019F01F5F4B
:10104A004F5F01C00B7F342F00FD14C0151710F439
:10105A00351708F00FC007FF08C002FF04C00B7F56
:10106A002D89115001C020E301C020E20E943112F3
:10107A005150ECCF141790F4006102FF06C00E9491
:10108A00711209F0515011504150E0E3EA930E9465
:10109A004612503009F051504150ECCF312FEC89B3
:1010AA00E030B9F43030A1F003FF06C0EE85FF85C9
:1010BA002591EE87FF8705C0AE85BF852D91AE8746
:1010CA00BF870E943112503009F051503150EACF97
:1010DA0051C00E9483120E9477152E2F2A3030F0B9
:1010EA0003FF02C0295C01C0295A01C0205D04FD2A
:1010FA0021C0213360F4A889B9898A899B89A130E2
:10110A00E0E0BE07E0E08E07E0E09E0709F40BC0CE
:10111A00431740F4531710F000FF01C010C020E23B
:10112A0007FF08C020E3006102FF04C00E94711299
:10113A0009F051500E943112503009F0515031508B
:10114A000E9483120E94A8150E945312EC89A88952
:10115A00B9898A899B89FF27662777270E9477158D
:10116A000E946C12E889F9896A897B890E9418169B
:10117A0009F0AFCF00FF08C0503031F05150E0E223
:10118A00EA930E944612F8CF10E00CCEAE81BF81DE
:10119A000E94C6150E942716EF966F960895FF9231
:1011AA00F82E26970E9422160E948C12309719F464
:1011BA00EFEFFFEF23C0DE0116960E940A158D019C
:1011CA000E948C12EE83FF83E0E0E887E987DE0164
:1011DA001A960E940A150E94C615FA93EA931A9360
:1011EA000A93EEEAF5E0FA93EA93DE011A96BDDD78
:1011FA009F01AE81BF81E0E0EC93F9010E942916BC
:10120A002A96FF9008950E94E4157B816A81F981EC
:10121A00E88177FB770F67FD7160972F9E5781F002
:10122A0078F0983190F4AA27BB27882708948795E5
:10123A00B795A7959A95D1F7EA23FB23682305C0AA
:10124A00E8947727EE27FF2766276F77769508F4C5
:10125A00606877F9A991B99189919991EA17FB0781
:10126A006807790797FB08950E94E4150E94D5152F
:10127A000E9408090E94DA1519F40E94D01513C1B8
:10128A00E6F70E94D015A0E0B0E080E89FE30E9454
:10129A00001409C10000C09A00000895C098C498BB
:1012AA00C59808951A93F6DF13B3C098E12F1991E0
:1012BA000895AA931A93E0E0E4BBC19AC298E9811F
:1012CA00EF5F1E2F10FF02C0C49A01C0C49811FF1D
:1012DA0002C0C59A01C0C598E5DFE078E9F7188130
:1012EA0057C0AA93A981E5DF0E94931251C0E091E9
:1012FA002C03EA93E0912B03EF73E064AE2FF1DF46
:10130A00E0912C03EA93E0912D03E86BAE2FE9DF1D
:10131A000895AA93E981E0932B03E295EF70E6958D
:10132A00E695E0932C03E881E0932D03E0DF30C0DB
:10133A00A0912B03AF5FA0932B03A03818F0E0E035
:10134A00E0932B03E0912B03EF7331F4E0912B032D
:10135A00EA93A0912D03DDDF0895AA93A0912C03AF
:10136A00A8DFC29A0E94931221960895A0912C0395
:10137A00A0DFE0E0E4BBC19AC29A94DF0895AA9381
:10138A00E981EA93E9810E949C12F0DFB0DFEEDF87
:10139A0022960895BA93AA931A93B89AB99ABA9ABE
:1013AA00BE9AC69ABC9ABD9A79DFC698A4E6B0E0FE
:1013BA000E945713C69A10E0123040F41A93AFE312
:1013CA0090DF1A931395A0EC8CDFF6CFE1E0E0935F
:1013DA000E03E0E0E0930F03E981FA813097A9F068
:1013EA00A981BA810E94C615E0931203F0931303F0
:1013FA0012960E94C615E0932703F0932803A98149
:10140A00BA8114960E94C6150AC0E0E0F0E0E093A3
:10141A001203F0931303E0932703F0932803E09356
:10142A002903F0932A03E1E0E0931403E093150300
:10143A00E0931603EFEFE0931703E1E0E0931E0356
:10144A00EFE1F3E0FA93EA93EFEFEA93A8E0B0E072
:10145A000E94E40E04D0E1E01881239608950E94C8
:10146A00221600E030E0E0910F03E03009F00FEFC0
:10147A00383078F4E0E0EA93A32F3F5F4ADF10E0C8
:10148A00A12F1F5FA03820F4A02F0E94A212F8CF2C
:10149A00EFCFE0E0EA93A0E03CDFE0E0EA93A0E0EF
:1014AA008BD30E94291624960895AA931A930A9315
:1014BA00AC81A03818F4AB81A03420F019810881DE
:1014CA000C94F20EEC81EA93AC8159DF1E2F0FDFE8
:1014DA00EB81E770A1E00E941A150E2FEA81E03035
:1014EA0011F0102B03C0E02FE0951E23A12F35DF4A
:1014FA00198108810C94F20EAA931A93ED81EA934A
:10150A00AD813DDF1E2FF3DEE981E73011F0E830CF
:10151A0039F4EB81EA93AA810E94E70FEB8308C0B2
:10152A00E33021F4EB81E095EB8302C0E03021F453
:10153A00EA81E0951E2302C0E23029F4EA81AB81F8
:10154A00EA231E2B0EC0E13029F4EA81AB81EA239B
:10155A001E2707C0E43029F4EA81E095AB81EA2B23
:10156A001E23A12F0E94A212188126960895AA93DB
:10157A0023970E942016A889A03848F4AF85A03482
:10158A0030F4AE85A03019F0AD85A03009F4C8C199
:10159A00EE85E887A889BB27EE85F0E0AE0FBF1F6E
:1015AA00A138E0E0BE0720F0A889E0E8EA1BEE8750
:1015BA002D85AF85BB27ED85F0E0AE0FBF1FA134A7
:1015CA00E0E0BE0720F0AF85E0E4EA1BED87A985DD
:1015DA00A63009F05BC0EC85E13009F4A1C1E33023
:1015EA0039F4E0912903F0912A03309709F498C15C
:1015FA000885ED85E695E695E6953E2FE22FE7709C
:10160A0019F4AD852A17E9F0A02FBB27E32FF0E0E4
:10161A000E943F15AA85BB850E94A612269526958B
:10162A002695532F5F935F5FE22FAF91EA1748F039
:10163A00102FE12F1150E03019F00E94AB12F9CFB0
:10164A00F1CFAE850A1711F1EE85AA85BB85F0E0C8
:10165A000E94A612ED85E77009F03F5F20E02F9304
:10166A002F5FE32FAF91AE1788F41E851F931F5F7C
:10167A00E02FAF91AE1718F40E94AB12F7CFEE85A8
:10168A00AE81BF81F0E00E94A612E9CFEF85E77034
:10169A003E2FED85E03009F443C1EA85FB85EE83F0
:1016AA00FF8310E00889303009F065C0AD85A830A5
:1016BA0008F45CC0E985E03011F0E33009F402C0B7
:1016CA00E73009F402C0E83009F402C0E63009F450
:1016DA0002C0E93009F402C0EA3021F40A93E88929
:1016EA000E949C121F931F5FEE85AF91AE17B8F54B
:1016FA00A985A63061F43ADEFADD0E94B812FA939F
:10170A00EA9334DEAE2F0E942E1012DE27C0E9853E
:10171A00E93011F450E00EC0EA3011F45FEF0AC06C
:10172A000E94B8120E94C1125E2FE985E73011F0BB
:10173A00E83021F40E94C7125E2F06C0E33011F48C
:10174A00509502C0E03021F4A52F0E94A21206C0D3
:10175A000E94CB12EFEFEA93AD85CEDEC3CFEF85C1
:10176A00E85FEF87ED85E850ED87D1C05D8520E021
:10177A00E0E0ED877AC0E32FAD85AE0FA93020F403
:10178A002D85E0E0ED8703C0E8E0E31B2E2F3A93B6
:10179A00A22F0E94DC0F4E2FE985E630F1F41F9349
:1017AA001F5FEE85AF91AE17B8F40E94D112AE2F2B
:1017BA00E32F0E9422150E94D812E32FA42F0E9421
:1017CA002215E095E1215E2B0E94B812FA93EA9362
:1017DA00A52F0E942E10E3CF2CC0E93011F450E05F
:1017EA0003C0EA30A9F45FEF0E94C712AE2FE32FBD
:1017FA000E941A155E2F1F931F5FEE85AF91AE17D9
:10180A0030F40E94CB124A93A0E076DEF4CF11C0E6
:10181A001F931F5FEE85AF91AE1758F40E94E31233
:10182A00AE2FE32F0E941A15EA934A93AD8564DE20
:10183A00EFCFED85E03009F473C0AD85A83028F408
:10184A00ED85E21B5E2FE0E003C0532FED85E850E3
:10185A00ED8710E0EF85E85FEF87E8E0E31B2E2FC6
:10186A000889EA85FB85EE83FF83E52FF0E0E85CD3
:10187A00FD4F4491E985E630F1F41F931F5FEE8531
:10188A00AF91AE17B8F40E94D112AE2FE22F0E9488
:10189A001A150E94D812E22FA42F0E941A15E09559
:1018AA00E1215E2B0E94B812FA93EA93A52F0E94B7
:1018BA002E10E3CF2CC0E93011F450E003C0EA3017
:1018CA00A9F45FEF0E94C712AE2FE22F0E942215E1
:1018DA005E2F1F931F5FEE85AF91AE1730F40E9403
:1018EA00CB124A93A0E008DEF4CF11C01F931F5F0A
:1018FA00EE85AF91AE1758F40E94E312AE2FE22F95
:10190A000E942215EA934A93AD85F6DDEFCFE8856A
:10191A00AA85BB85F0E0EA0FFB1FEA87FB87B9CEF1
:10192A000E942716619608950E94F01224F0E0E0C2
:10193A00F0E00C94E50FA881B981A038E0E0BE0779
:10194A0024F0EFE7F0E00C94E50FE881F9810C94BC
:10195A00E50F0E94F01224F0E0E0F0E00C94E50FAD
:10196A00A881B981A034E0E0BE0724F0EFE3F0E0FB
:10197A000C94E50FE881F9810C94E50FAA93E981AB
:10198A00EA93E981EA93A0910E038FDD0C94E50FA7
:10199A00BA93AA9323970E94F7128F01002E012A65
:1019AA0019F4E0E0F0E05FC00E94FE120F820E948C
:1019BA00FE120E820E94FE120886EB85A885EA179F
:1019CA0018F4E0E0F0E04FC0F8010F5F1F4F5491A8
:1019DA00A885BB27EE27A50FBE1FEB85F0E0EA1707
:1019EA00FB0718F0E0E0F0E03EC0EE81E695E695F0
:1019FA00E6954E2FEE81E77009F04F5FEF81E030F8
:101A0A00A1F0A985BA85EC93A885EB85EA1BF0E0DD
:101A1A00DF01EF81F0E00E943F15DF01E42FF0E0E3
:101A2A000E943F15E00FF11F1EC09801E52FF0E05C
:101A3A000E0F1F1FA885AF5FA887A150EB85AE17B1
:101A4A0060F4F9012F5F3F4FA491B0E0E42FF0E07A
:101A5A000E943F150E0F1F1FEDCFF901E491A985D2
:101A6A00BA85EC93F8010E9427162C960895E0E0B7
:101A7A00E0931003A0911103BB270E940313F0E027
:101A8A00AE0FBF1FE0911503F0E0AE0FBF1F61DF7D
:101A9A00E09311030895AA9321970E94F7123097B1
:101AAA0009F455C0AF81AA3009F44FC0EF81EA9317
:101ABA00DE0117966DDFAF01309709F44AC0E09155
:101ACA001403AE81EA0F3E2FA0911003BB27F0E06A
:101ADA00EA0FFB1F8F010138E0E01E0718F0032F01
:101AEA001127C5DFE0911003EA93E0911103EA930D
:101AFA00E885EA930E940313EA93E1E0EA935A9392
:101B0A004A93A7E034DDE0911003AE81EA0FEA932D
:101B1A00E0911103EA93E0911403EA930E940313FC
:101B2A000E940A13E0911003EA93A09111030E9404
:101B3A000313EA0FEA933A93E09115030E940A13FA
:101B4A00E0E8F0E0E017F10711F491DF02C000933A
:101B5A0010030E94271628960895BA93AA931A93F7
:101B6A00EC81EA93AC8128D0A981BA81ED91A9834D
:101B7A00BA831E2FE03019F0A12F8DDFF5CF18811F
:101B8A002CC1AA93EA81EA93EA81EA93E0911703C6
:101B9A00AA81EA2319F0E0910E0302C0E0910F0333
:101BAA00AE2F83DCE881EE0FE883E03011F4E1E048
:101BBA00E883E8810C942C10AA93A981BB27B4DE90
:101BCA00E0931003A881BB27C4DEE09311030C94B1
:101BDA00E50FAA932B970E942016AC89BB27A4DE97
:101BEA00EC8BAA89BB27A0DEEA8BAB89BB27B1DEC7
:101BFA00EB8BA989BB27ADDEE98BEA89E093100359
:101C0A00E989E0931103E1E0E887E989AB89EA17FA
:101C1A0071F51C89AA891A1731F41A93EC89EA9387
:101C2A00A1E0AFDFC8C0AA891A1730F4EA89E11B1C
:101C3A000E2F41E050E006C0AA89E12FEA1B0E2FC1
:101C4A004FEF5FEF3B89E0E0EE830E94141338F414
:101C5A001A933A933395AA8594DFEF83F6CFEF81EF
:101C6A00E887140FE02F0150E03061F7A4C0EA8939
:101C7A00AC89EA1739F53B89A9893A1730F4E98919
:101C8A00E31B2E2FE1E0F0E006C0A989E32FEA1B4F
:101C9A002E2FEFEFFFEFED87FE871C89E0E0EE8342
:101CAA000E94141330F41A9313950E941C13EF83A5
:101CBA00F7CFEF81E887ED853E0FE22F2150E03024
:101CCA0061F779C0E0E0EE830E94141308F073C054
:101CDA001C893B89E1E02E2F0E2FAA89BB27EC89AC
:101CEA00F0E0AE1BBF0BAD0155232AF40FEFFA014A
:101CFA000E940E15AF01FA01EE0FFF1FEF87F88B56
:101D0A00A989BB27EB89F0E0AE1BBF0BAD87BE8765
:101D1A00AE85AA233AF42FEFED85FE850E940E15B3
:101D2A00ED87FE87ED85FE85EE0FFF1FEB87FC87AB
:101D3A001A933A93A1E025DFE887E0E0E987EA878A
:101D4A00AD85BE854A175B07BCF0100FEB85FC8595
:101D5A000E942013A985BA854A175B072CF4320F13
:101D6A00AF85B8890E9427131A930E941C13E8872B
:101D7A00EA89E11751F718C0320FEF85F8890E94F6
:101D8A002013ED85FE85A985BA85EA17FB072CF491
:101D9A00100FAB85BC850E9427131A930E941C134F
:101DAA00E887E989E31741F7EB89EF5FEB8BE9896C
:101DBA00EF5FE98B89CF0E94271665960895BA933B
:101DCA00AA93B981A881109631F0FC81EB816A81CE
:101DDA0061931197E9F7EB81FC8125960895BA93EF
:101DEA00AA93E991F991A991B991CD0105900D9222
:101DFA000020E1F7FC010895BA93AA93A991B99139
:101E0A00EE27FF276D91662311F03196FBCF0895D7
:101E1A00BA93AA93AA27BB27E991F99105900020C2
:101E2A0011F01196FBCFFD0108950E94D311E0E055
:101E3A00EA83EFE3EB831A930A93EB85FC85EF3F82
:101E4A00AFEFFA0739F40E942E13ACE3B3E00E9415
:101E5A00F40EA9C0EF3FAFE7FA0739F40E942E1338
:101E6A00ADE3B3E00E94F40E9EC0AC85AA2362F4EF
:101E7A00E985FA856B857C850E9461130E9433137C
:101E8A000E943813EDE2EC93A885A73010F0E6E043
:101E9A00E8871885E12F1150E03039F00E943F138E
:101EAA000E9418120E944413F5CF0E9449130E94FF
:101EBA0007140E94331310E0E0E0F0E060E87FE3EB
:101ECA000E9444130E9449130E94EA1488F00E9457
:101EDA003F130E9405120E9444131F5F173238F005
:101EEA000E942E13A1E4B3E00E94F40E5CC0EACF74
:101EFA00103029F40E943813E0E3EC9329C0E12F53
:101F0A001150E03029F10E943F130E9418120E94DA
:101F1A001112DF01CB010E9439090E9444130E9469
:101F2A0049130E94A5140E9494130E2F0E9438137D
:101F3A000E942612F0E00E943F130E9453110E9451
:101F4A0057140E9452130E9477110E943313D7CF5D
:101F5A00E885E03021F10E943813EEE2EC93E8853F
:101F6A00E150E887EF5FD9F00E9452130E940512F0
:101F7A000E943313E985FA856B857C850E94941348
:101F8A000E2F0E9438130E942612F0E00E9452136C
:101F9A000E9453110E9477110E943313E0CFAE8141
:101FAA00BF81E0E0EC93198108812D960895AA93E8
:101FBA00E881F0E0E85CFD4FA491E9810E941A15DE
:101FCA0022960895AA931A93E981E73011F0EA302C
:101FDA0019F410910E0309C0E93019F410910F0396
:101FEA0004C0E830A1F410911E03E0910F03E03021
:101FFA0049F0103019F0EFEF188129C0EA81E09515
:10200A00188125C0103019F4E0E0188120C0EA8157
:10201A0018811DC0BA93AA93EA81E13021F4E881BC
:10202A00F981E49114C0E23029F4A881B9810E94AF
:10203A00FB150DC0E33041F4A881B981E091270373
:10204A00F0912803099503C0A881B981EC912396E0
:10205A000895AA93EB81E03029F4E881A981BA8135
:10206A00EC9314C0E23031F4E881A981BA810E946C
:10207A0007160CC0E33051F4E981FA81FA93EA9326
:10208A00AA81E0912903F0912A03099524960895DB
:10209A000E94340AE5E0EA93EA93EA93A7E30C94F0
:1020AA00EE0DEA93E8E7EA93A7E30E94EE0DE5E076
:1020BA00EA9308950E9457130C94340AEAE0EA93CB
:1020CA00EFE0EA9308950E94B20DEAE0EA93E3E2B0
:1020DA00EA930895FE01E958FF4F0190F081E02D3F
:1020EA00309708950E940A028F010F3FE0E01E0711
:1020FA000895E6E6F0E0E017F1070895EDE3F0E071
:10210A00E017F1070895E1E0F0E0DE01A958BF4FBA
:10211A00ED93FC930895EFEFF0E0E017F1070895CF
:10212A00FE01EF57FF4F0190F081E02D0895AAE0DC
:10213A00B0E00E944715E00FF11F0895FE01E15635
:10214A00FF4FFA93EA930895E5E9F2E0FA93EA93E6
:10215A000895FE01EB57FF4F0190F081E02D0E9498
:10216A0035150E94DF1584E00E94D4082896089548
:10217A00EAE0EA93EA93DE01AF55BF4F0E94B20D3F
:10218A00A4E1B0E00E9457130FEF10E008950E94F7
:10219A00340AD4CFE0E1EA93E0E0EA93DE01AF55F6
:1021AA00BF4F0E94B20DA8ECB0E00E945713E1E0C5
:1021BA00F0E0DE01AD57BF4FED93FC93E0E0DE01A6
:1021CA00A758BF4FED93EC93DE01A958BF4FED938B
:1021DA00EC930E94340A72CFFE01E358FF4F01903C
:1021EA00F081E02D08959CDF0E9435150E94DF15CD
:1021FA0084E00E94D40828960895FE01E558FF4F0E
:10220A000190F081E02D0895FE01E158FF4F019001
:10221A00F081E02D0E9435150E94DF1584E00E94AE
:10222A00D40828960895FE01ED57FF4F0190F081DA
:10223A00E02D0E9435150E94DF1584E00E94D40823
:10224A0028960895DE01A758BF4F0D90BC91A02D86
:10225A000895F901DE01A956BF4FEE0FFF1F089539
:10226A00FE01E957FF4FFA93EA930895AE0FBF1F95
:10227A000E94C6150895E0E1EA93AAE02A020A92AA
:10228A00DE01A757BF4F0C94B20DDE01A159BF4F13
:10229A000D901D908D919C91D00108950E94351545
:1022AA000E94CD130895DE01A159BF4FED93FD930E
:1022BA006D937C930895E0E0F0E060E870E40E949A
:1022CA00A5140895FE01ED58FF4F019011906191F8
:1022DA007081F00108950E94DF1584E00E94D408FD
:1022EA00289608950E94EE150E9400140895DE01B2
:1022FA00AD58BF4F0D901D908D919C91D0010895BE
:10230A00DE01AD58BF4FED93FD936D937C93089515
:10231A00BF01FE01E756FF4F0190F081E02DDE017B
:10232A00A956BF4F0D90BC91A02DEA0FFB1FDE01ED
:10233A00A556BF4F0D90BC91A02DEA0FFB1FDE01E1
:10234A00A356BF4F0D90BC91A02DAE0FBF1FE4E066
:10235A00F0E00E947215DB010895DE01A559BF4F16
:10236A000D901D908D919C91D00198DF0E94EA14E6
:10237A0008950E94340AEFE0EA93E9E1EA930895A6
:10238A00DE011696A40FB51FAC91CADEB0E008951F
:10239A00ED91FD913196FE93EE930895BA93AA9327
:1023AA002497E0E0E883E9830895AC81BD818E81BA
:1023BA009F81E0E0F0E060E271E40E945714EC8350
:1023CA00FD836E837F830895EC81FD816E817F8119
:1023DA00AC85BD858E859F850E94EA140895AC85DB
:1023EA00BD858E859F850895EDECFCEC6CEC7DE354
:1023FA000E945714EC87FD876E877F873F5F089599
:10240A00E0E0F0E060E271E40E9457140895EC877E
:10241A00FD876E877F870895A0E0B0E080E09FE3A4
:10242A000E9407140895EDECFCEC6CEC7DE30E942D
:10243A0057140895A885B9851196A887B987119761
:10244A000895E02FE05DEC93E02F0895E885F98583
:10245A003196E887F98708952A93AF81B885E98587
:10246A00FA8509950895FE01E65AFF4F0190F08119
:10247A00E02D08953497DE01A65ABF4FED93FC93E1
:10248A000895AF81B885E985FA8509950895DE0131
:10249A00A65ABF4F0D90BC91A02D0895EA87FB87DD
:1024AA006C877D870895DFDFE5CFEA85FB856C853C
:1024BA007D850895EE87FF87AE85BF850E94010F4F
:1024CA001E2F0895E4DF14960E94C6150895E88B1E
:1024DA00F98B6A8B7B8B08950B7FED89EA93DE017A
:1024EA00A95ABF4F0D90BC91A02DFE01E75AFF4F8C
:1024FA000190F081E02D099550300895E889F98915
:10250A006A897B89AA85BB858C859D850895DE01AC
:10251A001C960E940A150E94C6150895C198EFEFED
:10252A00E4BBE881E5BB0E944F090C945309E69588
:10253A00E695E695AE2F0C948E090E94B2090C948A
:10254A009D09EA0FFB1FEE83FF830895EC85EA934A
:10255A00EF81F8853196EF83F8873197FA93EA93FA
:10256A00A0E00C942E10EC85EA93EF81F885319661
:10257A00EF83F8873197089566277727DF01CB0124
:10258A000C940F105A93AA850C94E70F0A9303959B
:10259A00E889EA935A9308950A930395A8890E94B1
:1025AA00C409E42308955E2FEC85EA93AF81B885C8
:1025BA00882799270E940F101E2E08950A930395C3
:1025CA00E889EA93EE85EA93E985FA853196E987FF
:1025DA00FA873197D1CFBA93AA93A881B9810E9479
:1025EA001C1608950E942016E0911203F09113031D
:1025FA000895F8010F5F1F4F04900895E0911203A8
:10260A00F09113033196E4910895EA93E0E0EA9396
:10261A00E0E0F0E0FA93EA93A9E00C94BC0AAE81F8
:10262A00AF5FAE83A150E0911603AE1708953A93B7
:10263A00AA850C94C60DA985BA85EA0FFB1FE987FE
:10264A00FA870895E985FA85EA1BFB0BE987FA8779
:10265A000895EE81FF81FA93EA930895E987FA874C
:10266A006B877C870895AE81BF811196AE83BF8345
:10267A0011970895AA81BB818C819D810895EA836F
:10268A00FB836C837D830895EA81FB816C817D8164
:10269A00A985BA858B859C850895A985BA858B8578
:1026AA009C850895109639F080ED97E00197F1F72F
:1026BA00A8951197C9F7089530976040704009F0BE
:1026CA0070580895552342F4503811F4E0FF04C0BD
:1026DA003196691F791F6BF050E8572711F45F9301
:1026EA00CFC05F3F31F0660F000C57956795752F85
:1026FA0008955F9300200AF0CFC0C8C050E8192E91
:10270A001522880F991F9527550F879550E8072E90
:10271A000522660F771F7527550F679508956894E8
:10272A0001C0E8945F93F2DF703818F07F3F08F435
:10273A00A7C056E1571BAAF4519558300EF45930E8
:10274A0030F0EFEFFFEF6FEF7FE777F91AC07727E7
:10275A005523B9F0EE0FFF1F661F771F5A95D1F761
:10276A0010C07727583028F0EF2FF62F672F5850D0
:10277A00F9CF552331F076956795F795E7955A95F0
:10278A00D1F700200AF449D15F910895689401C0F5
:10279A00E894309760407040B1F0002426F0772327
:1027AA0012F400943AD1172E7EE1112032F07A9574
:1027BA00EE0FFF1F661F111CF9CFEF2FF62F612DA9
:1027CA005F938ADF5F9108954F93AF01FD01DA01AC
:1027DA00AB01BC01CA01402D012C142E4F91089562
:1027EA00EA0FFB1F681F0895E095F0956095EF5F6B
:1027FA00FF4F6F4F08955F9381DF903871F150E872
:10280A00152604C05F937ADF903839F1703821F1C8
:10281A00572F591B2BF112F4D7DFFACF583118F082
:10282A00AA27BB278827583028F0AB2FB82F88272C
:10283A005850F9CF552329F08695B795A7955A95FB
:10284A00D9F7502D512572F0CBDF38F46795F795FB
:10285A00E795739513F420C0B7DF3EDF5F910895C3
:10286A00D8F7FBCFEA1BFB0B680B51F010F400946E
:10287A00BBDF662392F3EE0FFF1F661F7A95CBF735
:10288A00EE27FF27662777275F910895EFEFFFEF7F
:10289A006FE77FEF5F910895EFEFFFEF6FE77FE755
:1028AA005F9108955F932ADF703851F3903841F3AE
:1028BA0001240894791F23F41CF300203AF3ECCF87
:1028CA000F921F932F933F934F93112722279927F4
:1028DA00689FA0018F9F302D410D591F6B9F300DAE
:1028EA00411D591F8E9F27D0BF9F25D06A9F23D095
:1028FA00BE9F1DD0AF9F1BD0AE9F110D291F391F40
:10290A00491F591FE32FF42F652F522F4F913F91E3
:10291A002F911F910F9066232AF0550FEE1FFF1F6C
:10292A00661F02C073954BF2CDDE5F910895100DBC
:10293A00211D391F02C0200D311D491F591F08953D
:10294A005F93DCDE703821F411200AF49FCFA4CF04
:10295A00903809F495CF01240894970B1BF4D4F30B
:10296A000020F3CF792F1F932F933F934F93112476
:10297A001127222733274427552790E2AE17BF078E
:10298A008607410730F0AE1BBF0B860B410B08943C
:10299A0001C08894551F221F331F111CAA1FBB1F79
:1029AA00881F441F9A9551F7F901612D4F913F9164
:1029BA002F911F91662332F0550FEE1FFF1F661FDE
:1029CA007A9543F27FDE5F91089599239AF07723EF
:1029DA0042F0971748F029F4AE17BF07860720F090
:1029EA0031F09894889408959894089408951894C6
:1029FA00889408957723C2F7971798F3A9F7EA17E7
:102A0A00FB07680788F399F3ECCF0024AF0DB01DDC
:102A1A000895F195E195F0400895F09560957095C7
:102A2A00E195FF4F6F4F7F4F0895EE230E2EEA2F49
:102A3A0019F0EE0F0A94E9F70895EE230E2EEA2F05
:102A4A0019F0E6950A94E9F70895F695E795F6954B
:102A5A00E7950895FE2FFF0FFF0B6F2F7F2F089525
:102A6A006F2F660F660B762F08958B2F880F880BB2
:102A7A00982F0895FA9FF02DEB9FF00DEA9FE02D15
:102A8A00F10D089570D0F6DF0EF4C3DF0895002427
:102A9A0098E0AA0F001C0E1A10F40E0E01C0A160D5
:102AAA009A95B9F7EA2FA02D089551D0F0DF0EF4C8
:102ABA00E19508950024112490E1AA0FBB1F001C80
:102ACA00111C0E1A1F0A18F40E0E1F1E01C0A16057
:102ADA009A9599F7FD01D001089545D0EBDF0EF4E0
:102AEA0098DF08953F934F935F930024112444275E
:102AFA00552730E2AA0FBB1F881F991F001C111C03
:102B0A00441F551F0E1A1F0A460B570B28F40E0EA8
:102B1A001F1E461F571F01C0A1603A9559F7FD01B4
:102B2A00BC01D001CA015F914F913F910895E89489
:102B3A00A7FF02C0A1956894E7FDE195A8DFEA2FF7
:102B4A000EF4E1950895CEDFFD01BC010895E894E5
:102B5A00E7FF02C0E1956894A7FF04C0A19500F8B9
:102B6A00039400FA0895E894F7FF02C052DF6894CC
:102B7A00B7FF06C0A095B095119600F8039400FA25
:102B8A000895ED91FC9111970895ED91FD916D9144
:102B9A007C9113970895E881F9816A817B81089570
:102BAA00A881B9818A819B810895E883F9836A8320
:102BBA007B8308957A936A93FA93EA9308959A9392
:102BCA008A93BA93AA930895689401C0E89401D0AD
:102BDA00E0DD182E862F612D192E972F712D1B2EB1
:102BEA00BF2FF12D1A2EAE2FE12D0895E199FECFB8
:102BFA00FF93FFB7F894AEBBBFBBE09AEDB3FFBF3C
:102C0A00FF910895E19B02C0A895FCCF9FB7F89465
:102C1A00AEBBBFBBE09A8DB3E81719F0EDBBE29AE1
:102C2A00E19A9FBF0895309760407040089500244C
:102C3A000A160B0608955A934A933A932A931A93BB
:102C4A000A9308955D814C813B812A81198108810B
:102C5A000895AC0FBD1F05900D928A95E1F708956E
:00000001FF
